{
  "abi": [
    {
      "inputs": [
        {
          "internalType": "address",
          "name": "gateway_",
          "type": "address"
        },
        {
          "internalType": "address",
          "name": "gasReceiver_",
          "type": "address"
        }
      ],
      "stateMutability": "nonpayable",
      "type": "constructor"
    },
    {
      "inputs": [],
      "name": "InvalidAddress",
      "type": "error"
    },
    {
      "inputs": [],
      "name": "NotApprovedByGateway",
      "type": "error"
    },
    {
      "inputs": [
        {
          "internalType": "bytes32",
          "name": "commandId",
          "type": "bytes32"
        },
        {
          "internalType": "string",
          "name": "sourceChain",
          "type": "string"
        },
        {
          "internalType": "string",
          "name": "sourceAddress",
          "type": "string"
        },
        {
          "internalType": "bytes",
          "name": "payload",
          "type": "bytes"
        }
      ],
      "name": "execute",
      "outputs": [],
      "stateMutability": "nonpayable",
      "type": "function"
    },
    {
      "inputs": [
        {
          "internalType": "bytes32",
          "name": "commandId",
          "type": "bytes32"
        },
        {
          "internalType": "string",
          "name": "sourceChain",
          "type": "string"
        },
        {
          "internalType": "string",
          "name": "sourceAddress",
          "type": "string"
        },
        {
          "internalType": "bytes",
          "name": "payload",
          "type": "bytes"
        },
        {
          "internalType": "string",
          "name": "tokenSymbol",
          "type": "string"
        },
        {
          "internalType": "uint256",
          "name": "amount",
          "type": "uint256"
        }
      ],
      "name": "executeWithToken",
      "outputs": [],
      "stateMutability": "nonpayable",
      "type": "function"
    },
    {
      "inputs": [],
      "name": "gasService",
      "outputs": [
        {
          "internalType": "contract IAxelarGasService",
          "name": "",
          "type": "address"
        }
      ],
      "stateMutability": "view",
      "type": "function"
    },
    {
      "inputs": [],
      "name": "gateway",
      "outputs": [
        {
          "internalType": "contract IAxelarGateway",
          "name": "",
          "type": "address"
        }
      ],
      "stateMutability": "view",
      "type": "function"
    },
    {
      "inputs": [
        {
          "internalType": "string",
          "name": "destinationChain",
          "type": "string"
        },
        {
          "internalType": "string",
          "name": "destinationContractAddress",
          "type": "string"
        },
        {
          "internalType": "string",
          "name": "symbol",
          "type": "string"
        },
        {
          "internalType": "uint256",
          "name": "amount",
          "type": "uint256"
        }
      ],
      "name": "sendToDifferentChain",
      "outputs": [],
      "stateMutability": "payable",
      "type": "function"
    }
  ],
  "bytecode": {
    "object": "0x60c060405234801561001057600080fd5b50604051610e2c380380610e2c83398101604081905261002f9161008b565b816001600160a01b0381166100575760405163e6c4247b60e01b815260040160405180910390fd5b6001600160a01b039081166080521660a052506100be565b80516001600160a01b038116811461008657600080fd5b919050565b6000806040838503121561009e57600080fd5b6100a78361006f565b91506100b56020840161006f565b90509250929050565b60805160a051610d196101136000396000818161010601526103500152600081816076015281816101960152818161029e015281816103d9015281816104840152818161057801526106350152610d196000f3fe60806040526004361061004a5760003560e01c80631091309f1461004f578063116191b6146100645780631a98b2e0146100b457806349160658146100d45780636a22d8cc146100f4575b600080fd5b61006261005d3660046107ea565b610128565b005b34801561007057600080fd5b506100987f000000000000000000000000000000000000000000000000000000000000000081565b6040516001600160a01b03909116815260200160405180910390f35b3480156100c057600080fd5b506100626100cf3660046108c3565b610453565b3480156100e057600080fd5b506100626100ef36600461099d565b610547565b34801561010057600080fd5b506100987f000000000000000000000000000000000000000000000000000000000000000081565b6000341161017c5760405162461bcd60e51b815260206004820152601760248201527f476173207061796d656e74206973207265717569726564000000000000000000604482015260640160405180910390fd5b6040516349ad89fb60e11b81526000906001600160a01b037f0000000000000000000000000000000000000000000000000000000000000000169063935b13f6906101cb908690600401610a87565b602060405180830381865afa1580156101e8573d6000803e3d6000fd5b505050506040513d601f19601f8201168201806040525081019061020c9190610ab9565b6040516323b872dd60e01b8152336004820152306024820152604481018490529091506001600160a01b038216906323b872dd906064016020604051808303816000875af1158015610262573d6000803e3d6000fd5b505050506040513d601f19601f820116820180604052508101906102869190610ad6565b5060405163095ea7b360e01b81526001600160a01b037f0000000000000000000000000000000000000000000000000000000000000000811660048301526024820184905282169063095ea7b3906044016020604051808303816000875af11580156102f6573d6000803e3d6000fd5b505050506040513d601f19601f8201168201806040525081019061031a9190610ad6565b50604080513360208201526000910160408051601f1981840301815290829052636316100160e11b825291506001600160a01b037f0000000000000000000000000000000000000000000000000000000000000000169063c62c20029034906103939030908b908b9088908c908c903390600401610af8565b6000604051808303818588803b1580156103ac57600080fd5b505af11580156103c0573d6000803e3d6000fd5b5050604051632d505c2160e21b81526001600160a01b037f000000000000000000000000000000000000000000000000000000000000000016935063b5417084925061041991508990899086908a908a90600401610b71565b600060405180830381600087803b15801561043357600080fd5b505af1158015610447573d6000803e3d6000fd5b50505050505050505050565b60008585604051610465929190610bd1565b604051908190038120631876eed960e01b825291506001600160a01b037f00000000000000000000000000000000000000000000000000000000000000001690631876eed9906104c9908e908e908e908e908e9089908d908d908d90600401610c0a565b6020604051808303816000875af11580156104e8573d6000803e3d6000fd5b505050506040513d601f19601f8201168201806040525081019061050c9190610ad6565b61052957604051631403112d60e21b815260040160405180910390fd5b61053a8a8a8a8a8a8a8a8a8a610621565b5050505050505050505050565b60008282604051610559929190610bd1565b604051908190038120635f6970c360e01b825291506001600160a01b037f00000000000000000000000000000000000000000000000000000000000000001690635f6970c3906105b7908b908b908b908b908b908990600401610c69565b6020604051808303816000875af11580156105d6573d6000803e3d6000fd5b505050506040513d601f19601f820116820180604052508101906105fa9190610ad6565b61061757604051631403112d60e21b815260040160405180910390fd5b5050505050505050565b600061062f85870187610caa565b905060007f00000000000000000000000000000000000000000000000000000000000000006001600160a01b031663935b13f686866040518363ffffffff1660e01b8152600401610681929190610cc7565b602060405180830381865afa15801561069e573d6000803e3d6000fd5b505050506040513d601f19601f820116820180604052508101906106c29190610ab9565b60405163a9059cbb60e01b81526001600160a01b038481166004830152602482018690529192509082169063a9059cbb906044016020604051808303816000875af1158015610715573d6000803e3d6000fd5b505050506040513d601f19601f820116820180604052508101906107399190610ad6565b505050505050505050505050565b634e487b7160e01b600052604160045260246000fd5b600082601f83011261076e57600080fd5b813567ffffffffffffffff8082111561078957610789610747565b604051601f8301601f19908116603f011681019082821181831017156107b1576107b1610747565b816040528381528660208588010111156107ca57600080fd5b836020870160208301376000602085830101528094505050505092915050565b6000806000806080858703121561080057600080fd5b843567ffffffffffffffff8082111561081857600080fd5b6108248883890161075d565b9550602087013591508082111561083a57600080fd5b6108468883890161075d565b9450604087013591508082111561085c57600080fd5b506108698782880161075d565b949793965093946060013593505050565b60008083601f84011261088c57600080fd5b50813567ffffffffffffffff8111156108a457600080fd5b6020830191508360208285010111156108bc57600080fd5b9250929050565b60008060008060008060008060008060c08b8d0312156108e257600080fd5b8a35995060208b013567ffffffffffffffff8082111561090157600080fd5b61090d8e838f0161087a565b909b50995060408d013591508082111561092657600080fd5b6109328e838f0161087a565b909950975060608d013591508082111561094b57600080fd5b6109578e838f0161087a565b909750955060808d013591508082111561097057600080fd5b5061097d8d828e0161087a565b9150809450508092505060a08b013590509295989b9194979a5092959850565b60008060008060008060006080888a0312156109b857600080fd5b87359650602088013567ffffffffffffffff808211156109d757600080fd5b6109e38b838c0161087a565b909850965060408a01359150808211156109fc57600080fd5b610a088b838c0161087a565b909650945060608a0135915080821115610a2157600080fd5b50610a2e8a828b0161087a565b989b979a50959850939692959293505050565b6000815180845260005b81811015610a6757602081850181015186830182015201610a4b565b506000602082860101526020601f19601f83011685010191505092915050565b602081526000610a9a6020830184610a41565b9392505050565b6001600160a01b0381168114610ab657600080fd5b50565b600060208284031215610acb57600080fd5b8151610a9a81610aa1565b600060208284031215610ae857600080fd5b81518015158114610a9a57600080fd5b600060018060a01b03808a16835260e06020840152610b1a60e084018a610a41565b8381036040850152610b2c818a610a41565b90508381036060850152610b408189610a41565b90508381036080850152610b548188610a41565b60a0850196909652509290921660c0909101525095945050505050565b60a081526000610b8460a0830188610a41565b8281036020840152610b968188610a41565b90508281036040840152610baa8187610a41565b90508281036060840152610bbe8186610a41565b9150508260808301529695505050505050565b8183823760009101908152919050565b81835281816020850137506000828201602090810191909152601f909101601f19169091010190565b89815260c060208201526000610c2460c083018a8c610be1565b8281036040840152610c3781898b610be1565b90508660608401528281036080840152610c52818688610be1565b9150508260a08301529a9950505050505050505050565b868152608060208201526000610c83608083018789610be1565b8281036040840152610c96818688610be1565b915050826060830152979650505050505050565b600060208284031215610cbc57600080fd5b8135610a9a81610aa1565b602081526000610cdb602083018486610be1565b94935050505056fea2646970667358221220501befadf6af0c2245be8b3331bd789d255c51ad80126c85ac798e02739ffeeb64736f6c63430008140033",
    "linkReferences": {}
  },
  "methodIdentifiers": {
    "execute(bytes32,string,string,bytes)": "49160658",
    "executeWithToken(bytes32,string,string,bytes,string,uint256)": "1a98b2e0",
    "gasService()": "6a22d8cc",
    "gateway()": "116191b6",
    "sendToDifferentChain(string,string,string,uint256)": "1091309f"
  },
  "id": 24
}